{
  "_format": "hh-sol-artifact-1",
  "contractName": "Colours",
  "sourceName": "contracts/Colours.sol",
  "abi": [
    {
      "inputs": [],
      "stateMutability": "nonpayable",
      "type": "constructor"
    },
    {
      "anonymous": false,
      "inputs": [
        {
          "indexed": true,
          "internalType": "address",
          "name": "user",
          "type": "address"
        },
        {
          "indexed": false,
          "internalType": "string",
          "name": "newColor",
          "type": "string"
        }
      ],
      "name": "ColorUpdated",
      "type": "event"
    },
    {
      "inputs": [
        {
          "internalType": "string",
          "name": "newColor",
          "type": "string"
        }
      ],
      "name": "changeColor",
      "outputs": [],
      "stateMutability": "nonpayable",
      "type": "function"
    },
    {
      "inputs": [
        {
          "internalType": "address",
          "name": "",
          "type": "address"
        }
      ],
      "name": "color",
      "outputs": [
        {
          "internalType": "string",
          "name": "",
          "type": "string"
        }
      ],
      "stateMutability": "view",
      "type": "function"
    }
  ],
  "bytecode": "0x608060405234801561001057600080fd5b50610861806100206000396000f3fe608060405234801561001057600080fd5b50600436106100365760003560e01c80636aa2afd51461003b578063e530dd0314610057575b600080fd5b61005560048036038101906100509190610362565b610087565b005b610071600480360381019061006c9190610409565b610168565b60405161007e91906104b5565b60405180910390f35b60008151116100cb576040517f08c379a00000000000000000000000000000000000000000000000000000000081526004016100c290610523565b60405180910390fd5b806000803373ffffffffffffffffffffffffffffffffffffffff1673ffffffffffffffffffffffffffffffffffffffff16815260200190815260200160002090816101169190610759565b503373ffffffffffffffffffffffffffffffffffffffff167f388780167cdcae8656190f12aae55687b3d67d9839a70f6b8ff1faa2161f7ddb8260405161015d91906104b5565b60405180910390a250565b6000602052806000526040600020600091509050805461018790610572565b80601f01602080910402602001604051908101604052809291908181526020018280546101b390610572565b80156102005780601f106101d557610100808354040283529160200191610200565b820191906000526020600020905b8154815290600101906020018083116101e357829003601f168201915b505050505081565b6000604051905090565b600080fd5b600080fd5b600080fd5b600080fd5b6000601f19601f8301169050919050565b7f4e487b7100000000000000000000000000000000000000000000000000000000600052604160045260246000fd5b61026f82610226565b810181811067ffffffffffffffff8211171561028e5761028d610237565b5b80604052505050565b60006102a1610208565b90506102ad8282610266565b919050565b600067ffffffffffffffff8211156102cd576102cc610237565b5b6102d682610226565b9050602081019050919050565b82818337600083830152505050565b6000610305610300846102b2565b610297565b90508281526020810184848401111561032157610320610221565b5b61032c8482856102e3565b509392505050565b600082601f8301126103495761034861021c565b5b81356103598482602086016102f2565b91505092915050565b60006020828403121561037857610377610212565b5b600082013567ffffffffffffffff81111561039657610395610217565b5b6103a284828501610334565b91505092915050565b600073ffffffffffffffffffffffffffffffffffffffff82169050919050565b60006103d6826103ab565b9050919050565b6103e6816103cb565b81146103f157600080fd5b50565b600081359050610403816103dd565b92915050565b60006020828403121561041f5761041e610212565b5b600061042d848285016103f4565b91505092915050565b600081519050919050565b600082825260208201905092915050565b60005b83811015610470578082015181840152602081019050610455565b60008484015250505050565b600061048782610436565b6104918185610441565b93506104a1818560208601610452565b6104aa81610226565b840191505092915050565b600060208201905081810360008301526104cf818461047c565b905092915050565b7f656d70747920636f6c6f72000000000000000000000000000000000000000000600082015250565b600061050d600b83610441565b9150610518826104d7565b602082019050919050565b6000602082019050818103600083015261053c81610500565b9050919050565b7f4e487b7100000000000000000000000000000000000000000000000000000000600052602260045260246000fd5b6000600282049050600182168061058a57607f821691505b60208210810361059d5761059c610543565b5b50919050565b60008190508160005260206000209050919050565b60006020601f8301049050919050565b600082821b905092915050565b6000600883026106057fffffffffffffffffffffffffffffffffffffffffffffffffffffffffffffffff826105c8565b61060f86836105c8565b95508019841693508086168417925050509392505050565b6000819050919050565b6000819050919050565b600061065661065161064c84610627565b610631565b610627565b9050919050565b6000819050919050565b6106708361063b565b61068461067c8261065d565b8484546105d5565b825550505050565b600090565b61069961068c565b6106a4818484610667565b505050565b5b818110156106c8576106bd600082610691565b6001810190506106aa565b5050565b601f82111561070d576106de816105a3565b6106e7846105b8565b810160208510156106f6578190505b61070a610702856105b8565b8301826106a9565b50505b505050565b600082821c905092915050565b600061073060001984600802610712565b1980831691505092915050565b6000610749838361071f565b9150826002028217905092915050565b61076282610436565b67ffffffffffffffff81111561077b5761077a610237565b5b6107858254610572565b6107908282856106cc565b600060209050601f8311600181146107c357600084156107b1578287015190505b6107bb858261073d565b865550610823565b601f1984166107d1866105a3565b60005b828110156107f9578489015182556001820191506020850194506020810190506107d4565b868310156108165784890151610812601f89168261071f565b8355505b6001600288020188555050505b50505050505056fea2646970667358221220da5dbdc181bd44a03a98d625f59191144ded3179b3e9c8a207af100f00bacef864736f6c63430008140033",
  "linkReferences": {},
  "deployedLinkReferences": {}
}